{
  "contractName": "ColorBlock",
  "abi": [
    {
      "constant": true,
      "inputs": [
        {
          "internalType": "uint256",
          "name": "",
          "type": "uint256"
        }
      ],
      "name": "pixels",
      "outputs": [
        {
          "internalType": "address",
          "name": "Owner",
          "type": "address"
        },
        {
          "internalType": "bytes3",
          "name": "Color",
          "type": "bytes3"
        }
      ],
      "payable": false,
      "stateMutability": "view",
      "type": "function"
    },
    {
      "constant": false,
      "inputs": [
        {
          "internalType": "uint256",
          "name": "pixelIndex",
          "type": "uint256"
        },
        {
          "internalType": "bytes3",
          "name": "color",
          "type": "bytes3"
        }
      ],
      "name": "assignPixel",
      "outputs": [],
      "payable": false,
      "stateMutability": "nonpayable",
      "type": "function"
    },
    {
      "constant": true,
      "inputs": [],
      "name": "getPixels",
      "outputs": [
        {
          "internalType": "uint256[]",
          "name": "",
          "type": "uint256[]"
        },
        {
          "internalType": "address[]",
          "name": "",
          "type": "address[]"
        },
        {
          "internalType": "bytes3[]",
          "name": "",
          "type": "bytes3[]"
        }
      ],
      "payable": false,
      "stateMutability": "view",
      "type": "function"
    }
  ],
  "bytecode": "0x608060405234801561001057600080fd5b5061058e806100206000396000f3fe608060405234801561001057600080fd5b50600436106100415760003560e01c80632204e251146100465780638da7f2321461009e578063feeac61914610153575b600080fd5b61009c6004803603604081101561005c57600080fd5b810190808035906020019092919080357cffffffffffffffffffffffffffffffffffffffffffffffffffffffffff19169060200190929190505050610242565b005b6100ca600480360360208110156100b457600080fd5b8101908080359060200190929190505050610327565b604051808373ffffffffffffffffffffffffffffffffffffffff1673ffffffffffffffffffffffffffffffffffffffff168152602001827cffffffffffffffffffffffffffffffffffffffffffffffffffffffffff19167cffffffffffffffffffffffffffffffffffffffffffffffffffffffffff191681526020019250505060405180910390f35b61015b610378565b60405180806020018060200180602001848103845287818151815260200191508051906020019060200280838360005b838110156101a657808201518184015260208101905061018b565b50505050905001848103835286818151815260200191508051906020019060200280838360005b838110156101e85780820151818401526020810190506101cd565b50505050905001848103825285818151815260200191508051906020019060200280838360005b8381101561022a57808201518184015260208101905061020f565b50505050905001965050505050505060405180910390f35b60008210158015610254575060198211155b61025d57600080fd5b60405180604001604052803373ffffffffffffffffffffffffffffffffffffffff168152602001827cffffffffffffffffffffffffffffffffffffffffffffffffffffffffff1916815250600083601981106102b557fe5b0160008201518160000160006101000a81548173ffffffffffffffffffffffffffffffffffffffff021916908373ffffffffffffffffffffffffffffffffffffffff16021790555060208201518160000160146101000a81548162ffffff021916908360e81c02179055509050505050565b6000816019811061033457fe5b016000915090508060000160009054906101000a900473ffffffffffffffffffffffffffffffffffffffff16908060000160149054906101000a900460e81b905082565b60608060608060196040519080825280602002602001820160405280156103ae5781602001602082028038833980820191505090505b509050606060196040519080825280602002602001820160405280156103e35781602001602082028038833980820191505090505b509050606060196040519080825280602002602001820160405280156104185781602001602082028038833980820191505090505b509050600080905060008090505b601981101561054657600080826019811061043d57fe5b0190508186838151811061044d57fe5b6020026020010181815250508060000160009054906101000a900473ffffffffffffffffffffffffffffffffffffffff1685838151811061048a57fe5b602002602001019073ffffffffffffffffffffffffffffffffffffffff16908173ffffffffffffffffffffffffffffffffffffffff16815250508060000160149054906101000a900460e81b8484815181106104e257fe5b60200260200101907cffffffffffffffffffffffffffffffffffffffffffffffffffffffffff191690817cffffffffffffffffffffffffffffffffffffffffffffffffffffffffff1916815250508280600101935050508080600101915050610426565b508383839650965096505050505090919256fea265627a7a7231582034d4be1a4cd7416156f5e32927230adf846121d2b65e835da38a1b4d846626f564736f6c63430005100032",
  "source": "pragma solidity ^0.5.0;\r\n\r\ncontract ColorBlock {\r\n\r\n    struct Pixel {\r\n        address Owner;\r\n        bytes3 Color;\r\n    }\r\n\r\n    // todo: doesn't scale, larger grid nukes everything. Relying on events to log seems like a bad idea?\r\n    uint constant gridSize = 5*5;\r\n    Pixel[gridSize] public pixels;\r\n\r\n    function assignPixel(uint pixelIndex, bytes3 color) public {\r\n        require(pixelIndex >= 0 && pixelIndex <= gridSize);\r\n\r\n        pixels[pixelIndex] = Pixel({Owner: msg.sender, Color: color});\r\n    }\r\n\r\n    function getPixels()\r\n        public view\r\n        returns (uint[] memory, address[] memory, bytes3[] memory)\r\n    {\r\n\r\n        // can't return struct? flatten object\r\n        uint[] memory statePixelIndex = new uint[](gridSize);\r\n        address[] memory stateOwners = new address[](gridSize);\r\n        bytes3[] memory stateColors = new bytes3[](gridSize);\r\n        \r\n        uint index = 0;\r\n\r\n        for (uint i = 0; i < pixels.length; i++) {\r\n            Pixel storage pixel = pixels[i];\r\n            statePixelIndex[i] = i;\r\n            stateOwners[i] = pixel.Owner;\r\n            stateColors[index] = pixel.Color;\r\n            \r\n            index++;\r\n        }\r\n        \r\n        return (statePixelIndex, stateOwners, stateColors);\r\n    }\r\n}",
  "sourcePath": "E:/Code/colorblock/contracts/ColorBlock.sol",
  "compiler": {
    "name": "solc",
    "version": "0.5.16+commit.9c3226ce.Emscripten.clang"
  },
  "schemaVersion": "3.4.1",
  "updatedAt": "2021-06-09T19:57:46.230Z",
  "networkType": "ethereum",
  "devdoc": {
    "methods": {}
  },
  "userdoc": {
    "methods": {}
  }
}