{
  "contractName": "ColorBlock",
  "abi": [
    {
      "constant": true,
      "inputs": [
        {
          "internalType": "uint256",
          "name": "",
          "type": "uint256"
        },
        {
          "internalType": "uint256",
          "name": "",
          "type": "uint256"
        }
      ],
      "name": "colors",
      "outputs": [
        {
          "internalType": "address",
          "name": "Owner",
          "type": "address"
        },
        {
          "internalType": "bytes3",
          "name": "Color",
          "type": "bytes3"
        }
      ],
      "payable": false,
      "stateMutability": "view",
      "type": "function"
    },
    {
      "constant": false,
      "inputs": [
        {
          "internalType": "uint256",
          "name": "x",
          "type": "uint256"
        },
        {
          "internalType": "uint256",
          "name": "y",
          "type": "uint256"
        },
        {
          "internalType": "bytes3",
          "name": "color",
          "type": "bytes3"
        }
      ],
      "name": "assignPixel",
      "outputs": [],
      "payable": false,
      "stateMutability": "nonpayable",
      "type": "function"
    },
    {
      "constant": true,
      "inputs": [],
      "name": "getPixels",
      "outputs": [
        {
          "internalType": "uint256[]",
          "name": "",
          "type": "uint256[]"
        },
        {
          "internalType": "uint256[]",
          "name": "",
          "type": "uint256[]"
        },
        {
          "internalType": "address[]",
          "name": "",
          "type": "address[]"
        },
        {
          "internalType": "bytes3[]",
          "name": "",
          "type": "bytes3[]"
        }
      ],
      "payable": false,
      "stateMutability": "view",
      "type": "function"
    }
  ],
  "bytecode": "0x608060405234801561001057600080fd5b506106b5806100206000396000f3fe608060405234801561001057600080fd5b50600436106100415760003560e01c8063946cfed914610046578063f317d7dd146100a8578063feeac61914610167575b600080fd5b6100a66004803603606081101561005c57600080fd5b81019080803590602001909291908035906020019092919080357cffffffffffffffffffffffffffffffffffffffffffffffffffffffffff1916906020019092919050505061029e565b005b6100de600480360360408110156100be57600080fd5b8101908080359060200190929190803590602001909291905050506103ae565b604051808373ffffffffffffffffffffffffffffffffffffffff1673ffffffffffffffffffffffffffffffffffffffff168152602001827cffffffffffffffffffffffffffffffffffffffffffffffffffffffffff19167cffffffffffffffffffffffffffffffffffffffffffffffffffffffffff191681526020019250505060405180910390f35b61016f61040f565b6040518080602001806020018060200180602001858103855289818151815260200191508051906020019060200280838360005b838110156101be5780820151818401526020810190506101a3565b50505050905001858103845288818151815260200191508051906020019060200280838360005b838110156102005780820151818401526020810190506101e5565b50505050905001858103835287818151815260200191508051906020019060200280838360005b83811015610242578082015181840152602081019050610227565b50505050905001858103825286818151815260200191508051906020019060200280838360005b83811015610284578082015181840152602081019050610269565b505050509050019850505050505050505060405180910390f35b600083101580156102b0575060058311155b6102b957600080fd5b600082101580156102cb575060058211155b6102d457600080fd5b60405180604001604052803373ffffffffffffffffffffffffffffffffffffffff168152602001827cffffffffffffffffffffffffffffffffffffffffffffffffffffffffff19168152506000846005811061032c57fe5b60050201836005811061033b57fe5b0160008201518160000160006101000a81548173ffffffffffffffffffffffffffffffffffffffff021916908373ffffffffffffffffffffffffffffffffffffffff16021790555060208201518160000160146101000a81548162ffffff021916908360e81c0217905550905050505050565b600082600581106103bb57fe5b6005020181600581106103ca57fe5b01600091509150508060000160009054906101000a900473ffffffffffffffffffffffffffffffffffffffff16908060000160149054906101000a900460e81b905082565b606080606080606060196040519080825280602002602001820160405280156104475781602001602082028038833980820191505090505b5090506060601960405190808252806020026020018201604052801561047c5781602001602082028038833980820191505090505b509050606060196040519080825280602002602001820160405280156104b15781602001602082028038833980820191505090505b509050606060196040519080825280602002602001820160405280156104e65781602001602082028038833980820191505090505b509050600080905060008090505b60058110156106685760008090505b6000826005811061051057fe5b5050600581101561065a57600080836005811061052957fe5b60050201826005811061053857fe5b0190508288858151811061054857fe5b6020026020010181815250508187858151811061056157fe5b6020026020010181815250508060000160009054906101000a900473ffffffffffffffffffffffffffffffffffffffff1686858151811061059e57fe5b602002602001019073ffffffffffffffffffffffffffffffffffffffff16908173ffffffffffffffffffffffffffffffffffffffff16815250508060000160149054906101000a900460e81b8585815181106105f657fe5b60200260200101907cffffffffffffffffffffffffffffffffffffffffffffffffffffffffff191690817cffffffffffffffffffffffffffffffffffffffffffffffffffffffffff1916815250508380600101945050508080600101915050610503565b5080806001019150506104f4565b5084848484985098509850985050505050509091929356fea265627a7a72315820cfcf5be767844c9b7457c42464162c084589948efe66645da20b4c81677bed6064736f6c63430005100032",
  "source": "pragma solidity ^0.5.0;\r\n\r\ncontract ColorBlock {\r\n\r\n    struct Pixel {\r\n        address Owner;\r\n        bytes3 Color;\r\n    }\r\n\r\n    // todo: doesn't scale, larger grid nukes everything. Relying on events to log seems like a bad idea?\r\n    Pixel[5][5] public colors;\r\n\r\n    function assignPixel(uint x, uint y, bytes3 color) public {\r\n        require(x >= 0 && x <= 5);\r\n        require(y >= 0 && y <= 5);\r\n\r\n        colors[x][y] = Pixel({Owner: msg.sender, Color: color});\r\n    }\r\n\r\n    function getPixels()\r\n        public view\r\n        returns (uint[] memory, uint[] memory, address[] memory, bytes3[] memory)\r\n    {\r\n\r\n        uint[] memory storedX = new uint[](25);\r\n        uint[] memory storedY = new uint[](25);\r\n        address[] memory storedOwners = new address[](25);\r\n        bytes3[] memory storedColors = new bytes3[](25);\r\n        \r\n        uint index = 0;\r\n\r\n        for (uint x = 0; x < colors.length; x++) {\r\n            for (uint y = 0; y < colors[x].length; y++) {\r\n                Pixel storage pixel = colors[x][y];\r\n                storedX[index] = x;\r\n                storedY[index] = y;\r\n                storedOwners[index] = pixel.Owner;\r\n                storedColors[index] = pixel.Color;\r\n                \r\n                index++;                \r\n            }\r\n        }\r\n        \r\n        return (storedX, storedY, storedOwners, storedColors);\r\n    }\r\n}",
  "sourcePath": "E:/Code/colorblock/contracts/ColorBlock.sol",
  "compiler": {
    "name": "solc",
    "version": "0.5.16+commit.9c3226ce.Emscripten.clang"
  },
  "schemaVersion": "3.4.1",
  "updatedAt": "2021-05-29T17:24:30.962Z",
  "networkType": "ethereum",
  "devdoc": {
    "methods": {}
  },
  "userdoc": {
    "methods": {}
  }
}